:100000000C945A000C946C000C946C000C946C00D2
:100010000C946C000C946C000C946C000C946C00B0
:100020000C946C000C946C000C946C000C946C00A0
:100030000C946C000C946C000C946C000C946C0090
:100040000C946C000C946C000C946C000C946C0080
:100050000C946C000C946C000C946C000C946C0070
:100060000C946C000C946C000C946C000C946C0060
:100070000C946C000C946C000C946C000C946C0050
:100080000C946C000C946C000C946C000C946C0040
:100090000C946C000C946C000C946C000C946C0030
:1000A0000C946C000C946C000C946C000C946C0020
:1000B0000C946C0011241FBECFEFD8E0DEBFCDBF83
:1000C00021E0A0E0B1E001C01D92A430B207E1F749
:1000D0000E94B4000C940A010C9400009091C0009E
:1000E00095FFFCCF9091C1009E7F9093C100882323
:1000F00029F08091C10081608093C1006093C600A7
:1001000008951F920F920FB60F9211242F938F9381
:100110009F938091C00087FFFCCF8091C000209109
:10012000C1009091C6008C71B9F4222351F08091E6
:100130000301981302C082E001C083E080930001B4
:100140000BC080910001823029F4992311F02D9A7F
:1001500001C02D98109200019F918F912F910F90C7
:100160000FBE0F901F901895259A389A84B1807F02
:1001700084B987B187B983B18F708093030185E01B
:100180008093C5008BE88093C40081E08093C00019
:100190008EE38093C20080910301882311F080E9EF
:1001A00001C088E08093C10078948091030181119F
:1001B00023C0409AD6B1D270C6B1809102018D178A
:1001C00059F061E081E00E946E006D2F80E00E9496
:1001D0006E00D0930201EECFC470809101018C17A4
:1001E00049F362E081E00E946E006C2F80E00E9483
:1001F0006E00C0930101DECF109200014098809103
:1002000000019EEF980F811101C0FFCF9230D8F30B
:0802100080E0F7CFF894FFCF66
:00000001FF
