:100000000C945A000C946C000C946C000C946C00D2
:100010000C946C000C946C000C946C000C946C00B0
:100020000C946C000C946C000C946C000C946C00A0
:100030000C946C000C946C000C946C000C946C0090
:100040000C946C000C946C000C946C000C946C0080
:100050000C946C000C946C000C946C000C946C0070
:100060000C946C000C946C000C946C000C946C0060
:100070000C946C000C946C000C946C000C946C0050
:100080000C946C000C946C000C946C000C946C0040
:100090000C946C000C946C000C946C000C946C0030
:1000A0000C946C000C946C000C946C000C946C0020
:1000B0000C946C0011241FBECFEFD8E0DEBFCDBF83
:1000C00021E0A0E0B1E001C01D92A430B207E1F749
:1000D0000E94C1000C940E010C940000909100014C
:1000E000981791F09091C00095FFFCCF9091C100BE
:1000F0009E7F9093C1009091C10091609093C10048
:100100008093C600809300018091C00085FFFCCFE2
:100110008091C1008E7F8093C1006093C6000895D6
:100120001F920F920FB60F9211242F938F939F93CC
:100130008091C00087FFFCCF8091C0002091C1005A
:100140009091C6008C71A9F421FF0EC0809103012B
:10015000981304C08091C0008E7F03C08091C000BE
:1001600081608093C00005C0992311F02D9A01C0D1
:100170002D989F918F912F910F900FBE0F901F90F0
:100180001895259A389A84B1807F84B987B187B948
:1001900083B18F708093030182E08093C50085EC6A
:1001A0008093C40086E08093C20084E08093C10005
:1001B00080910301882361F08091C1008069809360
:1001C000C1008091C00081608093C000409806C04B
:1001D0008091C10088608093C100409A789480919A
:1001E000030181111AC0D6B1D270C6B1809102014B
:1001F0008D1739F06D2F81E00E946E00D0930201BF
:10020000F2CFC470809101018C1769F36C2F82E0EA
:100210000E946E00C0930101E6CFFFCFF894FFCF9C
:00000001FF
